:08000000803102288731FC2F3A
:100D4E00F0007008240099001C1CAB2E1908080036
:100D5E0020008C1006308631A726863120008C1498
:100D6E008631BA260800F201F20A72080319080049
:100D7E0020008C1005308631A7268631FF30863153
:100D8E00A7268631F1007108FD0020008C147D0825
:100D9E000139F1007108F200BC2E20008C100330D6
:100DAE008631A72686310030F4000030F300003083
:100DBE00F2000030F1008631F9268631FF3086319F
:100DCE00A7268631F9007908FA007A3625009100B7
:100DDE0020000D1CF72E8530890BF32E0000E52E1A
:100DEE008C1408007108F5007208F6007308F700FD
:100DFE007408F8001030F836F70CF60CF50C890B69
:100E0E00022F75088631A72686317108F500720803
:100E1E00F6007308F7007408F8000830F836F70C7F
:100E2E00F60CF50C890B152F75088631A726863121
:100E3E0071088631A72608007A3021009900043007
:100E4E0023008C008D01E43021008C00D7308D0002
:100E5E007F309500533024008D000C302500930018
:100E6E00643020009B0004309C00A03021009E00C6
:100E7E0009309D0020000C128C11313024009D0091
:100E8E001C179C1720008C140B302000A800263055
:100E9E00A7005D30890B512FA70B512FA80B512F97
:100EAE00003220000D1A6B2F87317F2787310B30D0
:100EBE002000A8002630A7005D30890B642FA70BF9
:100ECE00642FA80B642F003220008D18582F863106
:100EDE00D42687310B302000A8002630A7005D30C5
:100EEE00890B772FA70B772FA80B772F0032582F50
:100EFE0000302000A3000030A2000030A10000301E
:100F0E00A0008C158631AF26873120008C10C7309B
:100F1E008631A726873120008C148631BA26873178
:100F2E0020008C110C160D1CFA2F8631AF2687313E
:100F3E0020008C1002308631A7268731200023082E
:100F4E00F4002208F3002108F2002008F100863197
:100F5E00F92687312000A401A501013025020030B9
:100F6E00031924020318DC2F21009D149D18BD2F98
:100F7E006430890BC02F21001B08F900790820006E
:100F8E00A600263625009100200026088631A726C9
:100F9E00873101302000A4070030A53D0130250225
:100FAE00003003192402031CBB2F8C148631BA2681
:100FBE0087310030F9000130FA000030FB000030BC
:100FCE00FC0020002008F9072108FA3D2208FB3D0D
:100FDE002308FC3D7C08A3007B08A2007A08A10030
:100FEE007908A0009A2F0C120800FD01200087310D
:020FFE00232F9F
:020000040001F9
:04000E00A2F9FFDE76
:00000001FF
